{
  "_format": "hh-sol-artifact-1",
  "contractName": "UserRegistry",
  "sourceName": "contracts/UserRegistry.sol",
  "abi": [
    {
      "anonymous": false,
      "inputs": [
        {
          "indexed": false,
          "internalType": "address",
          "name": "user",
          "type": "address"
        },
        {
          "indexed": false,
          "internalType": "string",
          "name": "username",
          "type": "string"
        },
        {
          "indexed": false,
          "internalType": "string",
          "name": "profilePicUrl",
          "type": "string"
        },
        {
          "indexed": false,
          "internalType": "uint256",
          "name": "registeredAt",
          "type": "uint256"
        }
      ],
      "name": "UserRegistered",
      "type": "event"
    },
    {
      "inputs": [
        {
          "internalType": "address",
          "name": "userAddress",
          "type": "address"
        }
      ],
      "name": "getUser",
      "outputs": [
        {
          "internalType": "string",
          "name": "",
          "type": "string"
        },
        {
          "internalType": "string",
          "name": "",
          "type": "string"
        },
        {
          "internalType": "uint256",
          "name": "",
          "type": "uint256"
        }
      ],
      "stateMutability": "view",
      "type": "function"
    },
    {
      "inputs": [
        {
          "internalType": "string",
          "name": "username",
          "type": "string"
        },
        {
          "internalType": "string",
          "name": "profilePicUrl",
          "type": "string"
        }
      ],
      "name": "registerUser",
      "outputs": [],
      "stateMutability": "nonpayable",
      "type": "function"
    },
    {
      "inputs": [
        {
          "internalType": "address",
          "name": "",
          "type": "address"
        }
      ],
      "name": "users",
      "outputs": [
        {
          "internalType": "string",
          "name": "username",
          "type": "string"
        },
        {
          "internalType": "string",
          "name": "profilePicUrl",
          "type": "string"
        },
        {
          "internalType": "uint256",
          "name": "registeredAt",
          "type": "uint256"
        }
      ],
      "stateMutability": "view",
      "type": "function"
    }
  ],
  "bytecode": "0x6080604052348015600f57600080fd5b50610bcf8061001f6000396000f3fe608060405234801561001057600080fd5b50600436106100415760003560e01c80631d2e4afd146100465780636f77926b14610062578063a87430ba14610094575b600080fd5b610060600480360381019061005b919061060d565b6100c6565b005b61007c600480360381019061007791906106e3565b6101dd565b60405161008b939291906107a8565b60405180910390f35b6100ae60048036038101906100a991906106e3565b610379565b6040516100bd939291906107a8565b60405180910390f35b600082511161010a576040517f08c379a000000000000000000000000000000000000000000000000000000000815260040161010190610839565b60405180910390fd5b6040518060600160405280838152602001828152602001428152506000803373ffffffffffffffffffffffffffffffffffffffff1673ffffffffffffffffffffffffffffffffffffffff16815260200190815260200160002060008201518160000190816101789190610a65565b50602082015181600101908161018e9190610a65565b50604082015181600201559050507fb43e07573ffd613ee4cb14f22ebd42b902fb524682771d8e82932bd48bcda247338383426040516101d19493929190610b46565b60405180910390a15050565b6060806000806000808673ffffffffffffffffffffffffffffffffffffffff1673ffffffffffffffffffffffffffffffffffffffff16815260200190815260200160002060405180606001604052908160008201805461023c90610888565b80601f016020809104026020016040519081016040528092919081815260200182805461026890610888565b80156102b55780601f1061028a576101008083540402835291602001916102b5565b820191906000526020600020905b81548152906001019060200180831161029857829003601f168201915b505050505081526020016001820180546102ce90610888565b80601f01602080910402602001604051908101604052809291908181526020018280546102fa90610888565b80156103475780601f1061031c57610100808354040283529160200191610347565b820191906000526020600020905b81548152906001019060200180831161032a57829003601f168201915b505050505081526020016002820154815250509050806000015181602001518260400151935093509350509193909250565b600060205280600052604060002060009150905080600001805461039c90610888565b80601f01602080910402602001604051908101604052809291908181526020018280546103c890610888565b80156104155780601f106103ea57610100808354040283529160200191610415565b820191906000526020600020905b8154815290600101906020018083116103f857829003601f168201915b50505050509080600101805461042a90610888565b80601f016020809104026020016040519081016040528092919081815260200182805461045690610888565b80156104a35780601f10610478576101008083540402835291602001916104a3565b820191906000526020600020905b81548152906001019060200180831161048657829003601f168201915b5050505050908060020154905083565b6000604051905090565b600080fd5b600080fd5b600080fd5b600080fd5b6000601f19601f8301169050919050565b7f4e487b7100000000000000000000000000000000000000000000000000000000600052604160045260246000fd5b61051a826104d1565b810181811067ffffffffffffffff82111715610539576105386104e2565b5b80604052505050565b600061054c6104b3565b90506105588282610511565b919050565b600067ffffffffffffffff821115610578576105776104e2565b5b610581826104d1565b9050602081019050919050565b82818337600083830152505050565b60006105b06105ab8461055d565b610542565b9050828152602081018484840111156105cc576105cb6104cc565b5b6105d784828561058e565b509392505050565b600082601f8301126105f4576105f36104c7565b5b813561060484826020860161059d565b91505092915050565b60008060408385031215610624576106236104bd565b5b600083013567ffffffffffffffff811115610642576106416104c2565b5b61064e858286016105df565b925050602083013567ffffffffffffffff81111561066f5761066e6104c2565b5b61067b858286016105df565b9150509250929050565b600073ffffffffffffffffffffffffffffffffffffffff82169050919050565b60006106b082610685565b9050919050565b6106c0816106a5565b81146106cb57600080fd5b50565b6000813590506106dd816106b7565b92915050565b6000602082840312156106f9576106f86104bd565b5b6000610707848285016106ce565b91505092915050565b600081519050919050565b600082825260208201905092915050565b60005b8381101561074a57808201518184015260208101905061072f565b60008484015250505050565b600061076182610710565b61076b818561071b565b935061077b81856020860161072c565b610784816104d1565b840191505092915050565b6000819050919050565b6107a28161078f565b82525050565b600060608201905081810360008301526107c28186610756565b905081810360208301526107d68185610756565b90506107e56040830184610799565b949350505050565b7f557365726e616d65207265717569726564000000000000000000000000000000600082015250565b600061082360118361071b565b915061082e826107ed565b602082019050919050565b6000602082019050818103600083015261085281610816565b9050919050565b7f4e487b7100000000000000000000000000000000000000000000000000000000600052602260045260246000fd5b600060028204905060018216806108a057607f821691505b6020821081036108b3576108b2610859565b5b50919050565b60008190508160005260206000209050919050565b60006020601f8301049050919050565b600082821b905092915050565b60006008830261091b7fffffffffffffffffffffffffffffffffffffffffffffffffffffffffffffffff826108de565b61092586836108de565b95508019841693508086168417925050509392505050565b6000819050919050565b600061096261095d6109588461078f565b61093d565b61078f565b9050919050565b6000819050919050565b61097c83610947565b61099061098882610969565b8484546108eb565b825550505050565b600090565b6109a5610998565b6109b0818484610973565b505050565b5b818110156109d4576109c960008261099d565b6001810190506109b6565b5050565b601f821115610a19576109ea816108b9565b6109f3846108ce565b81016020851015610a02578190505b610a16610a0e856108ce565b8301826109b5565b50505b505050565b600082821c905092915050565b6000610a3c60001984600802610a1e565b1980831691505092915050565b6000610a558383610a2b565b9150826002028217905092915050565b610a6e82610710565b67ffffffffffffffff811115610a8757610a866104e2565b5b610a918254610888565b610a9c8282856109d8565b600060209050601f831160018114610acf5760008415610abd578287015190505b610ac78582610a49565b865550610b2f565b601f198416610add866108b9565b60005b82811015610b0557848901518255600182019150602085019450602081019050610ae0565b86831015610b225784890151610b1e601f891682610a2b565b8355505b6001600288020188555050505b505050505050565b610b40816106a5565b82525050565b6000608082019050610b5b6000830187610b37565b8181036020830152610b6d8186610756565b90508181036040830152610b818185610756565b9050610b906060830184610799565b9594505050505056fea2646970667358221220592af6d5582a6ae80c0b096080f1a5151fde177b081f6051409348a5bbd7a75664736f6c634300081c0033",
  "linkReferences": {},
  "deployedLinkReferences": {}
}